{
  "contractName": "Finance",
  "abi": [
    {
      "inputs": [],
      "stateMutability": "nonpayable",
      "type": "constructor"
    },
    {
      "inputs": [],
      "name": "contractOwner",
      "outputs": [
        {
          "internalType": "address",
          "name": "",
          "type": "address"
        }
      ],
      "stateMutability": "view",
      "type": "function",
      "constant": true
    },
    {
      "inputs": [
        {
          "internalType": "uint256",
          "name": "",
          "type": "uint256"
        }
      ],
      "name": "games",
      "outputs": [
        {
          "internalType": "string",
          "name": "name",
          "type": "string"
        },
        {
          "internalType": "uint256",
          "name": "id",
          "type": "uint256"
        },
        {
          "internalType": "address",
          "name": "owner",
          "type": "address"
        },
        {
          "internalType": "bool",
          "name": "concluded",
          "type": "bool"
        },
        {
          "internalType": "uint256",
          "name": "scorePerQuestion",
          "type": "uint256"
        },
        {
          "internalType": "uint256",
          "name": "numberOfQuestions",
          "type": "uint256"
        }
      ],
      "stateMutability": "view",
      "type": "function",
      "constant": true
    },
    {
      "inputs": [
        {
          "internalType": "uint256",
          "name": "",
          "type": "uint256"
        },
        {
          "internalType": "uint256",
          "name": "",
          "type": "uint256"
        }
      ],
      "name": "questions",
      "outputs": [
        {
          "internalType": "string",
          "name": "quest",
          "type": "string"
        },
        {
          "internalType": "uint256",
          "name": "answer",
          "type": "uint256"
        }
      ],
      "stateMutability": "view",
      "type": "function",
      "constant": true
    },
    {
      "inputs": [
        {
          "internalType": "string",
          "name": "_name",
          "type": "string"
        },
        {
          "internalType": "uint256",
          "name": "_scorePerQuestion",
          "type": "uint256"
        }
      ],
      "name": "createGame",
      "outputs": [],
      "stateMutability": "nonpayable",
      "type": "function"
    },
    {
      "inputs": [],
      "name": "getGames",
      "outputs": [
        {
          "components": [
            {
              "internalType": "string",
              "name": "name",
              "type": "string"
            },
            {
              "internalType": "uint256",
              "name": "id",
              "type": "uint256"
            },
            {
              "internalType": "address",
              "name": "owner",
              "type": "address"
            },
            {
              "internalType": "bool",
              "name": "concluded",
              "type": "bool"
            },
            {
              "internalType": "address[]",
              "name": "participants",
              "type": "address[]"
            },
            {
              "internalType": "uint256",
              "name": "scorePerQuestion",
              "type": "uint256"
            },
            {
              "internalType": "uint256",
              "name": "numberOfQuestions",
              "type": "uint256"
            }
          ],
          "internalType": "struct Finance.Game[]",
          "name": "",
          "type": "tuple[]"
        }
      ],
      "stateMutability": "view",
      "type": "function",
      "constant": true
    },
    {
      "inputs": [
        {
          "internalType": "uint256",
          "name": "_gameId",
          "type": "uint256"
        }
      ],
      "name": "getGame",
      "outputs": [
        {
          "components": [
            {
              "internalType": "string",
              "name": "name",
              "type": "string"
            },
            {
              "internalType": "uint256",
              "name": "id",
              "type": "uint256"
            },
            {
              "internalType": "address",
              "name": "owner",
              "type": "address"
            },
            {
              "internalType": "bool",
              "name": "concluded",
              "type": "bool"
            },
            {
              "internalType": "address[]",
              "name": "participants",
              "type": "address[]"
            },
            {
              "internalType": "uint256",
              "name": "scorePerQuestion",
              "type": "uint256"
            },
            {
              "internalType": "uint256",
              "name": "numberOfQuestions",
              "type": "uint256"
            }
          ],
          "internalType": "struct Finance.Game",
          "name": "",
          "type": "tuple"
        }
      ],
      "stateMutability": "view",
      "type": "function",
      "constant": true
    },
    {
      "inputs": [
        {
          "internalType": "uint256",
          "name": "_gameId",
          "type": "uint256"
        }
      ],
      "name": "getGameQuestions",
      "outputs": [
        {
          "components": [
            {
              "internalType": "string",
              "name": "quest",
              "type": "string"
            },
            {
              "internalType": "string[]",
              "name": "options",
              "type": "string[]"
            },
            {
              "internalType": "uint256",
              "name": "answer",
              "type": "uint256"
            },
            {
              "internalType": "address[]",
              "name": "alreadyAnswer",
              "type": "address[]"
            }
          ],
          "internalType": "struct Finance.Question[]",
          "name": "",
          "type": "tuple[]"
        }
      ],
      "stateMutability": "view",
      "type": "function",
      "constant": true
    },
    {
      "inputs": [
        {
          "internalType": "uint256",
          "name": "_gameId",
          "type": "uint256"
        },
        {
          "internalType": "string",
          "name": "_question",
          "type": "string"
        },
        {
          "internalType": "uint256",
          "name": "_answer",
          "type": "uint256"
        },
        {
          "internalType": "string[]",
          "name": "_alternatives",
          "type": "string[]"
        }
      ],
      "name": "addQuestion",
      "outputs": [],
      "stateMutability": "nonpayable",
      "type": "function"
    },
    {
      "inputs": [
        {
          "internalType": "uint256",
          "name": "_gameId",
          "type": "uint256"
        }
      ],
      "name": "enterGame",
      "outputs": [],
      "stateMutability": "nonpayable",
      "type": "function"
    },
    {
      "inputs": [
        {
          "internalType": "uint256",
          "name": "_gameId",
          "type": "uint256"
        }
      ],
      "name": "getParticipants",
      "outputs": [
        {
          "components": [
            {
              "internalType": "address",
              "name": "addr",
              "type": "address"
            },
            {
              "internalType": "uint256",
              "name": "score",
              "type": "uint256"
            }
          ],
          "internalType": "struct Finance.User[]",
          "name": "",
          "type": "tuple[]"
        },
        {
          "internalType": "address[]",
          "name": "",
          "type": "address[]"
        }
      ],
      "stateMutability": "view",
      "type": "function",
      "constant": true
    },
    {
      "inputs": [
        {
          "internalType": "uint256",
          "name": "_gameId",
          "type": "uint256"
        }
      ],
      "name": "inGame",
      "outputs": [
        {
          "internalType": "bool",
          "name": "",
          "type": "bool"
        }
      ],
      "stateMutability": "view",
      "type": "function",
      "constant": true
    },
    {
      "inputs": [
        {
          "internalType": "uint256",
          "name": "_gameId",
          "type": "uint256"
        },
        {
          "internalType": "uint256",
          "name": "_questionNumber",
          "type": "uint256"
        }
      ],
      "name": "alreadyAnswered",
      "outputs": [
        {
          "internalType": "bool",
          "name": "",
          "type": "bool"
        }
      ],
      "stateMutability": "view",
      "type": "function",
      "constant": true
    },
    {
      "inputs": [
        {
          "internalType": "uint256",
          "name": "_gameId",
          "type": "uint256"
        }
      ],
      "name": "getScore",
      "outputs": [
        {
          "internalType": "uint256",
          "name": "",
          "type": "uint256"
        }
      ],
      "stateMutability": "view",
      "type": "function",
      "constant": true
    },
    {
      "inputs": [
        {
          "internalType": "uint256",
          "name": "_gameId",
          "type": "uint256"
        },
        {
          "internalType": "uint256",
          "name": "_questionNumber",
          "type": "uint256"
        },
        {
          "internalType": "uint256",
          "name": "_answer",
          "type": "uint256"
        }
      ],
      "name": "answerQuestion",
      "outputs": [
        {
          "internalType": "string",
          "name": "",
          "type": "string"
        }
      ],
      "stateMutability": "nonpayable",
      "type": "function"
    },
    {
      "inputs": [
        {
          "internalType": "uint256",
          "name": "_gameId",
          "type": "uint256"
        }
      ],
      "name": "finalizeGame",
      "outputs": [],
      "stateMutability": "nonpayable",
      "type": "function"
    }
  ],
  "bytecode": "0x608060405260008055600060015534801561001957600080fd5b5033600660006101000a81548173ffffffffffffffffffffffffffffffffffffffff021916908373ffffffffffffffffffffffffffffffffffffffff160217905550612f7b8061006a6000396000f3fe608060405234801561001057600080fd5b50600436106100f55760003560e01c8063a2f77bcc11610097578063c1e3bd3e11610066578063c1e3bd3e146102c2578063c5e35f0d146102f3578063ce606ee01461030f578063f9e0a1e81461032d576100f5565b8063a2f77bcc14610213578063a92c9f4414610243578063b51e752214610273578063c04c5947146102a4576100f5565b806343d6582b116100d357806343d6582b1461018f5780636dd5e67c146101ab578063771197ee146101c75780637874e2dc146101e3576100f5565b80630e1af57b146100fa578063117a5b901461012a578063256ff51d1461015f575b600080fd5b610114600480360381019061010f9190611c4e565b61035d565b6040516101219190611c8a565b60405180910390f35b610144600480360381019061013f9190611c4e565b6103f2565b60405161015696959493929190611d91565b60405180910390f35b61017960048036038101906101749190611df9565b6104f3565b6040516101869190611e4c565b60405180910390f35b6101a960048036038101906101a49190611c4e565b610815565b005b6101c560048036038101906101c09190611fa3565b610a43565b005b6101e160048036038101906101dc9190611c4e565b610bdf565b005b6101fd60048036038101906101f89190611c4e565b610cd5565b60405161020a919061230b565b60405180910390f35b61022d60048036038101906102289190611c4e565b610f4a565b60405161023a91906123df565b60405180910390f35b61025d60048036038101906102589190612401565b611135565b60405161026a9190612441565b60405180910390f35b61028d60048036038101906102889190612401565b611248565b60405161029b92919061245c565b60405180910390f35b6102ac611311565b6040516102b991906125f1565b60405180910390f35b6102dc60048036038101906102d79190611c4e565b61151f565b6040516102ea929190612760565b60405180910390f35b61030d6004803603810190610308919061287d565b6116a4565b005b610317611935565b604051610324919061291c565b60405180910390f35b61034760048036038101906103429190611c4e565b61195b565b6040516103549190612441565b60405180910390f35b600080600460003373ffffffffffffffffffffffffffffffffffffffff1673ffffffffffffffffffffffffffffffffffffffff16815260200190815260200160002060008481526020019081526020016000205490506003600084815260200190815260200160002081815481106103d8576103d7612937565b5b906000526020600020906002020160010154915050919050565b6005818154811061040257600080fd5b906000526020600020906006020160009150905080600001805461042590612995565b80601f016020809104026020016040519081016040528092919081815260200182805461045190612995565b801561049e5780601f106104735761010080835404028352916020019161049e565b820191906000526020600020905b81548152906001019060200180831161048157829003601f168201915b5050505050908060010154908060020160009054906101000a900473ffffffffffffffffffffffffffffffffffffffff16908060020160149054906101000a900460ff16908060040154908060050154905086565b6060600015156005858154811061050d5761050c612937565b5b906000526020600020906006020160020160149054906101000a900460ff1615151461056e576040517f08c379a000000000000000000000000000000000000000000000000000000000815260040161056590612a12565b60405180910390fd5b6105778461195b565b6105b6576040517f08c379a00000000000000000000000000000000000000000000000000000000081526004016105ad90612a7e565b60405180910390fd5b600015156105c48585611135565b151514610606576040517f08c379a00000000000000000000000000000000000000000000000000000000081526004016105fd90612b10565b60405180910390fd5b60026000858152602001908152602001600020838154811061062b5761062a612937565b5b9060005260206000209060040201600301339080600181540180825580915050600190039060005260206000200160009091909190916101000a81548173ffffffffffffffffffffffffffffffffffffffff021916908373ffffffffffffffffffffffffffffffffffffffff1602179055506000600460003373ffffffffffffffffffffffffffffffffffffffff1673ffffffffffffffffffffffffffffffffffffffff168152602001908152602001600020600086815260200190815260200160002054905060026000868152602001908152602001600020848154811061071757610716612937565b5b90600052602060002090600402016002015483036107f1576005858154811061074357610742612937565b5b90600052602060002090600602016004015460036000878152602001908152602001600020828154811061077a57610779612937565b5b9060005260206000209060020201600101546107969190612b5f565b6003600087815260200190815260200160002082815481106107bb576107ba612937565b5b906000526020600020906002020160010181905550604051806060016040528060318152602001612f156031913991505061080e565b604051806060016040528060298152602001612eec602991399150505b9392505050565b600015156005828154811061082d5761082c612937565b5b906000526020600020906006020160020160149054906101000a900460ff1615151461088e576040517f08c379a000000000000000000000000000000000000000000000000000000000815260040161088590612a12565b60405180910390fd5b600060405180604001604052803373ffffffffffffffffffffffffffffffffffffffff168152602001600081525090506003600083815260200190815260200160002080549050600460003373ffffffffffffffffffffffffffffffffffffffff1673ffffffffffffffffffffffffffffffffffffffff1681526020019081526020016000206000848152602001908152602001600020819055506003600083815260200190815260200160002081908060018154018082558091505060019003906000526020600020906002020160009091909190915060008201518160000160006101000a81548173ffffffffffffffffffffffffffffffffffffffff021916908373ffffffffffffffffffffffffffffffffffffffff160217905550602082015181600101555050600582815481106109cd576109cc612937565b5b9060005260206000209060060201600301339080600181540180825580915050600190039060005260206000200160009091909190916101000a81548173ffffffffffffffffffffffffffffffffffffffff021916908373ffffffffffffffffffffffffffffffffffffffff1602179055505050565b60006040518060e0016040528084815260200160005481526020013373ffffffffffffffffffffffffffffffffffffffff168152602001600015158152602001600067ffffffffffffffff811115610a9e57610a9d611e78565b5b604051908082528060200260200182016040528015610acc5781602001602082028036833780820191505090505b5081526020018381526020016000815250905060058190806001815401808255809150506001900390600052602060002090600602016000909190919091506000820151816000019081610b209190612d3f565b506020820151816001015560408201518160020160006101000a81548173ffffffffffffffffffffffffffffffffffffffff021916908373ffffffffffffffffffffffffffffffffffffffff16021790555060608201518160020160146101000a81548160ff0219169083151502179055506080820151816003019080519060200190610bae929190611a4b565b5060a0820151816004015560c0820151816005015550506001600054610bd49190612b5f565b600081905550505050565b8060058181548110610bf457610bf3612937565b5b906000526020600020906006020160020160009054906101000a900473ffffffffffffffffffffffffffffffffffffffff1673ffffffffffffffffffffffffffffffffffffffff163373ffffffffffffffffffffffffffffffffffffffff1614610c93576040517f08c379a0000000000000000000000000000000000000000000000000000000008152600401610c8a90612e83565b60405180910390fd5b600160058381548110610ca957610ca8612937565b5b906000526020600020906006020160020160146101000a81548160ff0219169083151502179055505050565b606060026000838152602001908152602001600020805480602002602001604051908101604052809291908181526020016000905b82821015610f3f5783829060005260206000209060040201604051806080016040529081600082018054610d3d90612995565b80601f0160208091040260200160405190810160405280929190818152602001828054610d6990612995565b8015610db65780601f10610d8b57610100808354040283529160200191610db6565b820191906000526020600020905b815481529060010190602001808311610d9957829003601f168201915b5050505050815260200160018201805480602002602001604051908101604052809291908181526020016000905b82821015610e90578382906000526020600020018054610e0390612995565b80601f0160208091040260200160405190810160405280929190818152602001828054610e2f90612995565b8015610e7c5780601f10610e5157610100808354040283529160200191610e7c565b820191906000526020600020905b815481529060010190602001808311610e5f57829003601f168201915b505050505081526020019060010190610de4565b5050505081526020016002820154815260200160038201805480602002602001604051908101604052809291908181526020018280548015610f2757602002820191906000526020600020905b8160009054906101000a900473ffffffffffffffffffffffffffffffffffffffff1673ffffffffffffffffffffffffffffffffffffffff1681526020019060010190808311610edd575b50505050508152505081526020019060010190610d0a565b505050509050919050565b610f52611ad5565b60058281548110610f6657610f65612937565b5b90600052602060002090600602016040518060e0016040529081600082018054610f8f90612995565b80601f0160208091040260200160405190810160405280929190818152602001828054610fbb90612995565b80156110085780601f10610fdd57610100808354040283529160200191611008565b820191906000526020600020905b815481529060010190602001808311610feb57829003601f168201915b50505050508152602001600182015481526020016002820160009054906101000a900473ffffffffffffffffffffffffffffffffffffffff1673ffffffffffffffffffffffffffffffffffffffff1673ffffffffffffffffffffffffffffffffffffffff1681526020016002820160149054906101000a900460ff161515151581526020016003820180548060200260200160405190810160405280929190818152602001828054801561111157602002820191906000526020600020905b8160009054906101000a900473ffffffffffffffffffffffffffffffffffffffff1673ffffffffffffffffffffffffffffffffffffffff16815260200190600101908083116110c7575b50505050508152602001600482015481526020016005820154815250509050919050565b6000806000905060005b60026000868152602001908152602001600020848154811061116457611163612937565b5b90600052602060002090600402016003018054905081101561123d576002600086815260200190815260200160002084815481106111a5576111a4612937565b5b906000526020600020906004020160030181815481106111c8576111c7612937565b5b9060005260206000200160009054906101000a900473ffffffffffffffffffffffffffffffffffffffff1673ffffffffffffffffffffffffffffffffffffffff163373ffffffffffffffffffffffffffffffffffffffff160361122a57600191505b808061123590612ea3565b91505061113f565b508091505092915050565b6002602052816000526040600020818154811061126457600080fd5b90600052602060002090600402016000915091505080600001805461128890612995565b80601f01602080910402602001604051908101604052809291908181526020018280546112b490612995565b80156113015780601f106112d657610100808354040283529160200191611301565b820191906000526020600020905b8154815290600101906020018083116112e457829003601f168201915b5050505050908060020154905082565b60606005805480602002602001604051908101604052809291908181526020016000905b8282101561151657838290600052602060002090600602016040518060e001604052908160008201805461136890612995565b80601f016020809104026020016040519081016040528092919081815260200182805461139490612995565b80156113e15780601f106113b6576101008083540402835291602001916113e1565b820191906000526020600020905b8154815290600101906020018083116113c457829003601f168201915b50505050508152602001600182015481526020016002820160009054906101000a900473ffffffffffffffffffffffffffffffffffffffff1673ffffffffffffffffffffffffffffffffffffffff1673ffffffffffffffffffffffffffffffffffffffff1681526020016002820160149054906101000a900460ff16151515158152602001600382018054806020026020016040519081016040528092919081815260200182805480156114ea57602002820191906000526020600020905b8160009054906101000a900473ffffffffffffffffffffffffffffffffffffffff1673ffffffffffffffffffffffffffffffffffffffff16815260200190600101908083116114a0575b505050505081526020016004820154815260200160058201548152505081526020019060010190611335565b50505050905090565b606080600360008481526020019081526020016000206005848154811061154957611548612937565b5b906000526020600020906006020160030181805480602002602001604051908101604052809291908181526020016000905b8282101561160d57838290600052602060002090600202016040518060400160405290816000820160009054906101000a900473ffffffffffffffffffffffffffffffffffffffff1673ffffffffffffffffffffffffffffffffffffffff1673ffffffffffffffffffffffffffffffffffffffff1681526020016001820154815250508152602001906001019061157b565b5050505091508080548060200260200160405190810160405280929190818152602001828054801561169457602002820191906000526020600020905b8160009054906101000a900473ffffffffffffffffffffffffffffffffffffffff1673ffffffffffffffffffffffffffffffffffffffff168152602001906001019080831161164a575b5050505050905091509150915091565b83600581815481106116b9576116b8612937565b5b906000526020600020906006020160020160009054906101000a900473ffffffffffffffffffffffffffffffffffffffff1673ffffffffffffffffffffffffffffffffffffffff163373ffffffffffffffffffffffffffffffffffffffff1614611758576040517f08c379a000000000000000000000000000000000000000000000000000000000815260040161174f90612e83565b60405180910390fd5b6005858154811061176c5761176b612937565b5b906000526020600020906006020160020160149054906101000a900460ff16156117cb576040517f08c379a00000000000000000000000000000000000000000000000000000000081526004016117c290612a12565b60405180910390fd5b60006040518060800160405280868152602001848152602001858152602001600067ffffffffffffffff81111561180557611804611e78565b5b6040519080825280602002602001820160405280156118335781602001602082028036833780820191505090505b50815250905060026000878152602001908152602001600020819080600181540180825580915050600190039060005260206000209060040201600090919091909150600082015181600001908161188b9190612d3f565b5060208201518160010190805190602001906118a8929190611b2a565b506040820151816002015560608201518160030190805190602001906118cf929190611a4b565b5050506001600587815481106118e8576118e7612937565b5b9060005260206000209060060201600501546119049190612b5f565b6005878154811061191857611917612937565b5b906000526020600020906006020160050181905550505050505050565b600660009054906101000a900473ffffffffffffffffffffffffffffffffffffffff1681565b6000806000905060005b6005848154811061197957611978612937565b5b906000526020600020906006020160030180549050811015611a41573373ffffffffffffffffffffffffffffffffffffffff16600585815481106119c0576119bf612937565b5b906000526020600020906006020160030182815481106119e3576119e2612937565b5b9060005260206000200160009054906101000a900473ffffffffffffffffffffffffffffffffffffffff1673ffffffffffffffffffffffffffffffffffffffff1603611a2e57600191505b8080611a3990612ea3565b915050611965565b5080915050919050565b828054828255906000526020600020908101928215611ac4579160200282015b82811115611ac35782518260006101000a81548173ffffffffffffffffffffffffffffffffffffffff021916908373ffffffffffffffffffffffffffffffffffffffff16021790555091602001919060010190611a6b565b5b509050611ad19190611b83565b5090565b6040518060e001604052806060815260200160008152602001600073ffffffffffffffffffffffffffffffffffffffff1681526020016000151581526020016060815260200160008152602001600081525090565b828054828255906000526020600020908101928215611b72579160200282015b82811115611b71578251829081611b619190612d3f565b5091602001919060010190611b4a565b5b509050611b7f9190611ba0565b5090565b5b80821115611b9c576000816000905550600101611b84565b5090565b5b80821115611bc05760008181611bb79190611bc4565b50600101611ba1565b5090565b508054611bd090612995565b6000825580601f10611be25750611c01565b601f016020900490600052602060002090810190611c009190611b83565b5b50565b6000604051905090565b600080fd5b600080fd5b6000819050919050565b611c2b81611c18565b8114611c3657600080fd5b50565b600081359050611c4881611c22565b92915050565b600060208284031215611c6457611c63611c0e565b5b6000611c7284828501611c39565b91505092915050565b611c8481611c18565b82525050565b6000602082019050611c9f6000830184611c7b565b92915050565b600081519050919050565b600082825260208201905092915050565b60005b83811015611cdf578082015181840152602081019050611cc4565b60008484015250505050565b6000601f19601f8301169050919050565b6000611d0782611ca5565b611d118185611cb0565b9350611d21818560208601611cc1565b611d2a81611ceb565b840191505092915050565b600073ffffffffffffffffffffffffffffffffffffffff82169050919050565b6000611d6082611d35565b9050919050565b611d7081611d55565b82525050565b60008115159050919050565b611d8b81611d76565b82525050565b600060c0820190508181036000830152611dab8189611cfc565b9050611dba6020830188611c7b565b611dc76040830187611d67565b611dd46060830186611d82565b611de16080830185611c7b565b611dee60a0830184611c7b565b979650505050505050565b600080600060608486031215611e1257611e11611c0e565b5b6000611e2086828701611c39565b9350506020611e3186828701611c39565b9250506040611e4286828701611c39565b9150509250925092565b60006020820190508181036000830152611e668184611cfc565b905092915050565b600080fd5b600080fd5b7f4e487b7100000000000000000000000000000000000000000000000000000000600052604160045260246000fd5b611eb082611ceb565b810181811067ffffffffffffffff82111715611ecf57611ece611e78565b5b80604052505050565b6000611ee2611c04565b9050611eee8282611ea7565b919050565b600067ffffffffffffffff821115611f0e57611f0d611e78565b5b611f1782611ceb565b9050602081019050919050565b82818337600083830152505050565b6000611f46611f4184611ef3565b611ed8565b905082815260208101848484011115611f6257611f61611e73565b5b611f6d848285611f24565b509392505050565b600082601f830112611f8a57611f89611e6e565b5b8135611f9a848260208601611f33565b91505092915050565b60008060408385031215611fba57611fb9611c0e565b5b600083013567ffffffffffffffff811115611fd857611fd7611c13565b5b611fe485828601611f75565b9250506020611ff585828601611c39565b9150509250929050565b600081519050919050565b600082825260208201905092915050565b6000819050602082019050919050565b600082825260208201905092915050565b600061204782611ca5565b612051818561202b565b9350612061818560208601611cc1565b61206a81611ceb565b840191505092915050565b600081519050919050565b600082825260208201905092915050565b6000819050602082019050919050565b60006120ad838361203c565b905092915050565b6000602082019050919050565b60006120cd82612075565b6120d78185612080565b9350836020820285016120e985612091565b8060005b85811015612125578484038952815161210685826120a1565b9450612111836120b5565b925060208a019950506001810190506120ed565b50829750879550505050505092915050565b61214081611c18565b82525050565b600081519050919050565b600082825260208201905092915050565b6000819050602082019050919050565b61217b81611d55565b82525050565b600061218d8383612172565b60208301905092915050565b6000602082019050919050565b60006121b182612146565b6121bb8185612151565b93506121c683612162565b8060005b838110156121f75781516121de8882612181565b97506121e983612199565b9250506001810190506121ca565b5085935050505092915050565b60006080830160008301518482036000860152612221828261203c565b9150506020830151848203602086015261223b82826120c2565b91505060408301516122506040860182612137565b506060830151848203606086015261226882826121a6565b9150508091505092915050565b60006122818383612204565b905092915050565b6000602082019050919050565b60006122a182611fff565b6122ab818561200a565b9350836020820285016122bd8561201b565b8060005b858110156122f957848403895281516122da8582612275565b94506122e583612289565b925060208a019950506001810190506122c1565b50829750879550505050505092915050565b600060208201905081810360008301526123258184612296565b905092915050565b61233681611d76565b82525050565b600060e0830160008301518482036000860152612359828261203c565b915050602083015161236e6020860182612137565b5060408301516123816040860182612172565b506060830151612394606086018261232d565b50608083015184820360808601526123ac82826121a6565b91505060a08301516123c160a0860182612137565b5060c08301516123d460c0860182612137565b508091505092915050565b600060208201905081810360008301526123f9818461233c565b905092915050565b6000806040838503121561241857612417611c0e565b5b600061242685828601611c39565b925050602061243785828601611c39565b9150509250929050565b60006020820190506124566000830184611d82565b92915050565b600060408201905081810360008301526124768185611cfc565b90506124856020830184611c7b565b9392505050565b600081519050919050565b600082825260208201905092915050565b6000819050602082019050919050565b600060e08301600083015184820360008601526124d5828261203c565b91505060208301516124ea6020860182612137565b5060408301516124fd6040860182612172565b506060830151612510606086018261232d565b506080830151848203608086015261252882826121a6565b91505060a083015161253d60a0860182612137565b5060c083015161255060c0860182612137565b508091505092915050565b600061256783836124b8565b905092915050565b6000602082019050919050565b60006125878261248c565b6125918185612497565b9350836020820285016125a3856124a8565b8060005b858110156125df57848403895281516125c0858261255b565b94506125cb8361256f565b925060208a019950506001810190506125a7565b50829750879550505050505092915050565b6000602082019050818103600083015261260b818461257c565b905092915050565b600081519050919050565b600082825260208201905092915050565b6000819050602082019050919050565b6040820160008201516126556000850182612172565b5060208201516126686020850182612137565b50505050565b600061267a838361263f565b60408301905092915050565b6000602082019050919050565b600061269e82612613565b6126a8818561261e565b93506126b38361262f565b8060005b838110156126e45781516126cb888261266e565b97506126d683612686565b9250506001810190506126b7565b5085935050505092915050565b600082825260208201905092915050565b600061270d82612146565b61271781856126f1565b935061272283612162565b8060005b8381101561275357815161273a8882612181565b975061274583612199565b925050600181019050612726565b5085935050505092915050565b6000604082019050818103600083015261277a8185612693565b9050818103602083015261278e8184612702565b90509392505050565b600067ffffffffffffffff8211156127b2576127b1611e78565b5b602082029050602081019050919050565b600080fd5b60006127db6127d684612797565b611ed8565b905080838252602082019050602084028301858111156127fe576127fd6127c3565b5b835b8181101561284557803567ffffffffffffffff81111561282357612822611e6e565b5b8086016128308982611f75565b85526020850194505050602081019050612800565b5050509392505050565b600082601f83011261286457612863611e6e565b5b81356128748482602086016127c8565b91505092915050565b6000806000806080858703121561289757612896611c0e565b5b60006128a587828801611c39565b945050602085013567ffffffffffffffff8111156128c6576128c5611c13565b5b6128d287828801611f75565b93505060406128e387828801611c39565b925050606085013567ffffffffffffffff81111561290457612903611c13565b5b6129108782880161284f565b91505092959194509250565b60006020820190506129316000830184611d67565b92915050565b7f4e487b7100000000000000000000000000000000000000000000000000000000600052603260045260246000fd5b7f4e487b7100000000000000000000000000000000000000000000000000000000600052602260045260246000fd5b600060028204905060018216806129ad57607f821691505b6020821081036129c0576129bf612966565b5b50919050565b7f546869732067616d6520697320636f6e636c7564656400000000000000000000600082015250565b60006129fc601683611cb0565b9150612a07826129c6565b602082019050919050565b60006020820190508181036000830152612a2b816129ef565b9050919050565b7f596f7520617265206e6f7420696e207468652047616d65000000000000000000600082015250565b6000612a68601783611cb0565b9150612a7382612a32565b602082019050919050565b60006020820190508181036000830152612a9781612a5b565b9050919050565b7f596f7520616c726561647920616e73776572656420746869732071756573746960008201527f6f6e210000000000000000000000000000000000000000000000000000000000602082015250565b6000612afa602383611cb0565b9150612b0582612a9e565b604082019050919050565b60006020820190508181036000830152612b2981612aed565b9050919050565b7f4e487b7100000000000000000000000000000000000000000000000000000000600052601160045260246000fd5b6000612b6a82611c18565b9150612b7583611c18565b9250828201905080821115612b8d57612b8c612b30565b5b92915050565b60008190508160005260206000209050919050565b60006020601f8301049050919050565b600082821b905092915050565b600060088302612bf57fffffffffffffffffffffffffffffffffffffffffffffffffffffffffffffffff82612bb8565b612bff8683612bb8565b95508019841693508086168417925050509392505050565b6000819050919050565b6000612c3c612c37612c3284611c18565b612c17565b611c18565b9050919050565b6000819050919050565b612c5683612c21565b612c6a612c6282612c43565b848454612bc5565b825550505050565b600090565b612c7f612c72565b612c8a818484612c4d565b505050565b5b81811015612cae57612ca3600082612c77565b600181019050612c90565b5050565b601f821115612cf357612cc481612b93565b612ccd84612ba8565b81016020851015612cdc578190505b612cf0612ce885612ba8565b830182612c8f565b50505b505050565b600082821c905092915050565b6000612d1660001984600802612cf8565b1980831691505092915050565b6000612d2f8383612d05565b9150826002028217905092915050565b612d4882611ca5565b67ffffffffffffffff811115612d6157612d60611e78565b5b612d6b8254612995565b612d76828285612cb2565b600060209050601f831160018114612da95760008415612d97578287015190505b612da18582612d23565b865550612e09565b601f198416612db786612b93565b60005b82811015612ddf57848901518255600182019150602085019450602081019050612dba565b86831015612dfc5784890151612df8601f891682612d05565b8355505b6001600288020188555050505b505050505050565b7f596f752073686f756c64206265207468652067616d652063726561746f72207460008201527f6f2063616c6c20746869732066756e6374696f6e210000000000000000000000602082015250565b6000612e6d603583611cb0565b9150612e7882612e11565b604082019050919050565b60006020820190508181036000830152612e9c81612e60565b9050919050565b6000612eae82611c18565b91507fffffffffffffffffffffffffffffffffffffffffffffffffffffffffffffffff8203612ee057612edf612b30565b5b60018201905091905056fe596f752772652077726f6e67203a28204e6f2073636f726520616464656420746f2070726f66696c65596f7527726520726967687421205468652073636f72652077617320616464656420746f20796f75722070726f66696c65a264697066735822122059293094d530a39df8462cb0666d06a13075523a6833c04e70cb75e8fd12ba9564736f6c63430008130033",
  "immutableReferences": {},
  "source": "// SPDX-License-Identifier: MIT\r\npragma solidity 0.8.19;\r\n\r\ncontract Finance {\r\n    struct Game {\r\n        string name;\r\n        uint id;\r\n        address owner;\r\n        bool concluded;\r\n        address[] participants;\r\n        uint scorePerQuestion;\r\n        uint numberOfQuestions;\r\n    }\r\n\r\n    struct Question {\r\n        string quest;\r\n        string[] options;\r\n        uint answer;\r\n        address[] alreadyAnswer;\r\n    }\r\n\r\n    struct User {\r\n        address addr;\r\n        uint score;\r\n    }\r\n\r\n    uint private ids = 0;\r\n    uint private userIds = 0;\r\n    mapping(uint => Question[]) public questions;\r\n    mapping(uint => User[]) gameUsers;\r\n    mapping(address => mapping(uint => uint)) userId;\r\n\r\n    Game[] public games;\r\n\r\n    address public contractOwner;\r\n\r\n    modifier onlyGameOwner(uint _gameId) {\r\n        require(msg.sender == games[_gameId].owner, 'You should be the game creator to call this function!');\r\n        _;\r\n    }\r\n\r\n    modifier onlyOwner() {\r\n        require(msg.sender == contractOwner, 'You should be the owner of this contract to call this function!');\r\n        _;\r\n    }\r\n\r\n    constructor() {\r\n        contractOwner = msg.sender;\r\n    }\r\n\r\n    function createGame(string memory _name, uint _scorePerQuestion) public {\r\n        Game memory newGame = Game({\r\n            name: _name,\r\n            id: ids,\r\n            owner: msg.sender,\r\n            concluded: false,\r\n            participants: new address[](0),\r\n            scorePerQuestion: _scorePerQuestion,\r\n            numberOfQuestions: 0\r\n        });\r\n\r\n        games.push(newGame);\r\n        ids = ids + 1;\r\n    }\r\n\r\n    function getGames() public view returns (Game[] memory) {\r\n        return games;\r\n    }\r\n\r\n    function getGame(uint _gameId) public view returns (Game memory) {\r\n        return games[_gameId];\r\n    }\r\n\r\n    function getGameQuestions(uint _gameId) public view returns (Question[] memory) {\r\n        return questions[_gameId];\r\n    }\r\n\r\n    function addQuestion(\r\n        uint _gameId,\r\n        string memory _question,\r\n        uint _answer,\r\n        string[] memory _alternatives\r\n    ) public onlyGameOwner(_gameId) {\r\n        require(!games[_gameId].concluded, 'This game is concluded');\r\n        Question memory newQuestion = Question({\r\n            quest: _question,\r\n            options: _alternatives,\r\n            answer: _answer,\r\n            alreadyAnswer: new address[](0)\r\n        });\r\n        questions[_gameId].push(newQuestion);\r\n        games[_gameId].numberOfQuestions = games[_gameId].numberOfQuestions + 1;\r\n    }\r\n\r\n    function enterGame(uint _gameId) public {\r\n        require(games[_gameId].concluded == false, 'This game is concluded');\r\n        User memory newUser = User({addr: msg.sender, score: 0});\r\n        userId[msg.sender][_gameId] = gameUsers[_gameId].length;\r\n        gameUsers[_gameId].push(newUser);\r\n        games[_gameId].participants.push(msg.sender);\r\n    }\r\n\r\n    function getParticipants(uint _gameId) public view returns (User[] memory, address[] memory) {\r\n        return (gameUsers[_gameId], games[_gameId].participants);\r\n    }\r\n\r\n    function inGame(uint _gameId) public view returns (bool) {\r\n        bool inside = false;\r\n        for (uint i = 0; i < games[_gameId].participants.length; i++) {\r\n            if (address(games[_gameId].participants[i]) == address(msg.sender)) {\r\n                inside = true;\r\n            }\r\n        }\r\n        return inside;\r\n    }\r\n\r\n    function alreadyAnswered(uint _gameId, uint _questionNumber) public view returns (bool) {\r\n        bool already = false;\r\n        for (uint i = 0; i < questions[_gameId][_questionNumber].alreadyAnswer.length; i++) {\r\n            if (msg.sender == questions[_gameId][_questionNumber].alreadyAnswer[i]) {\r\n                already = true;\r\n            }\r\n        }\r\n        return already;\r\n    }\r\n\r\n    function getScore(uint _gameId) public view returns (uint) {\r\n        uint id = userId[msg.sender][_gameId];\r\n        return gameUsers[_gameId][id].score;\r\n    }\r\n\r\n    function answerQuestion(uint _gameId, uint _questionNumber, uint _answer) public returns (string memory) {\r\n        require(games[_gameId].concluded == false, 'This game is concluded');\r\n        require(inGame(_gameId), 'You are not in the Game');\r\n        require(alreadyAnswered(_gameId, _questionNumber) == false, 'You already answered this question!');\r\n\r\n        questions[_gameId][_questionNumber].alreadyAnswer.push(msg.sender);\r\n\r\n        uint id = userId[msg.sender][_gameId];\r\n        if (_answer == questions[_gameId][_questionNumber].answer) {\r\n            gameUsers[_gameId][id].score = gameUsers[_gameId][id].score + games[_gameId].scorePerQuestion;\r\n            return \"You're right! The score was added to your profile\";\r\n        } else {\r\n            return \"You're wrong :( No score added to profile\";\r\n        }\r\n    }\r\n\r\n    function finalizeGame(uint _gameId) public onlyGameOwner(_gameId) {\r\n        games[_gameId].concluded = true;\r\n    }\r\n}\r\n",
  "sourcePath": "C:\\Users\\lucas\\Desktop\\UFABCFinance\\contracts\\Finance.sol",
  "compiler": {
    "name": "solc",
    "version": "0.8.19+commit.7dd6d404.Emscripten.clang"
  },
  "schemaVersion": "3.4.13",
  "updatedAt": "2023-10-07T07:01:30.080Z",
  "networkType": "ethereum",
  "devdoc": {
    "kind": "dev",
    "methods": {},
    "version": 1
  },
  "userdoc": {
    "kind": "user",
    "methods": {},
    "version": 1
  }
}